:100000000C9462000C948A000C948A000C948A0070
:100010000C948A000C948A000C948A000C948A0038
:100020000C948A000C948A000C948A000C948A0028
:100030000C948A000C948A000C948A000C948A0018
:100040000C9447080C948A000C94B7080C949108FF
:100050000C948A000C948A000C948A000C948A00F8
:100060000C9428070C948A0000000000240027004C
:100070002A0000000000250028002B0000000000DE
:1000800023002600290004040404040404040202DA
:100090000202020203030303030301020408102007
:1000A0004080010204081020010204081020000012
:1000B0000008000201000003040700000000000027
:1000C0000000E90811241FBECFEFD8E0DEBFCDBF8E
:1000D00011E0A0E0B1E0E0E0FEE102C005900D9289
:1000E000A43DB107D9F723E0A4EDB1E001C01D9212
:1000F000A236B207E1F710E0C2E6D0E004C02197D3
:10010000FE010E94900BC136D107C9F70E94440935
:100110000C94FE0E0C94000020914F02260F332702
:10012000331F21323105ECF420917502FC0190E07F
:1001300080E0243069F082E00895A0914F0221917F
:10014000AC01435D5D4FA40FB52FB11D2C930196FB
:10015000861798F380914F02680F60934F0280E0FA
:10016000089581E00895089508950895E091240286
:1001700080912302E81730F4F0E0ED5FFD4F8081BD
:1001800090E008958FEF9FEF089590912402809161
:1001900023022FEF3FEF981748F4E92FF0E0ED5FCF
:1001A000FD4F208130E09F5F90932402C9010895A4
:1001B0008091230290912402891B990B0895CF927C
:1001C000DF92EF92FF920F931F93CF93DF937C0107
:1001D000CB018A0120910202222389F0EB016B01FD
:1001E000C40ED51ECC15DD0569F06991D701ED91DE
:1001F000FC910190F081E02DC7010995F3CF642FA8
:100200000E948C00C801DF91CF911F910F91FF9048
:10021000EF90DF90CF900895CF93DF931F92CDB7EB
:10022000DEB76983209102022223F9F02091250292
:10023000203258F021E030E0FC013383228390E04B
:1002400080E00F90DF91CF91089580912602E82FF2
:10025000F0E0EE51FE4F998190838F5F80932602EC
:100260008093250281E090E0ECCF61E0CE01019621
:100270000E948C00F7CF833081F028F4813099F010
:100280008230A9F008958730A9F08830C9F0843011
:10029000B1F4809180008F7D03C0809180008F77C2
:1002A00080938000089584B58F7784BD089584B5C8
:1002B0008F7DFBCF8091B0008F778093B000089541
:1002C0008091B0008F7DF9CFCF93DF93282F30E05E
:1002D000F901E255FF4F8491F901E656FF4FD491A1
:1002E000F901EA57FF4FC491CC23A1F081110E947C
:1002F0003B01EC2FF0E0EE0FFF1FE458FF4FA591FC
:10030000B491EC91ED2381E090E009F480E0DF917D
:10031000CF91089580E090E0FACF1F93CF93DF93C1
:10032000282F30E0F901E255FF4F8491F901E6569C
:10033000FF4FD491F901EA57FF4FC491CC23A9F0A4
:10034000162F81110E943B01EC2FF0E0EE0FFF1FF2
:10035000EE58FF4FA591B4918FB7F894EC9111111D
:1003600008C0D095DE23DC938FBFDF91CF911F9122
:100370000895DE2BF8CF1092750281E0809377020A
:100380001092760261E082E10E948D0161E083E1DA
:100390000E948D01E9EBF0E080818E7F8083808177
:1003A0008D7F808388E48093B80085E48093BC00CF
:1003B0000895CF93DF9391E090932C028823B9F0B6
:1003C000C091B800D091BA008091BC008A7B809324
:1003D000BC0060E082E10E948D0160E083E10E9448
:1003E0008D010E94BB01D093BA00C093B800DF9189
:1003F000CF910895CF93DF9390E0FC01E656FF4F35
:1004000024918A579F4FFC0184918823C9F090E082
:10041000880F991FFC01E859FF4FA591B491FC0189
:10042000EE58FF4FC591D49161110DC09FB7F8945C
:100430008C91209582238C938881282328839FBFC9
:10044000DF91CF910895623051F49FB7F8943C91B9
:10045000822F809583238C93E8812E2BEFCF8FB74B
:10046000F894EC912E2B2C938FBFEACF3FB7F894E2
:100470008091DE019091DF01A091E001B091E10156
:1004800026B5A89B05C02F3F19F00196A11DB11DEF
:100490003FBFBA2FA92F982F8827BC01CD01620F2B
:1004A000711D811D911D42E0660F771F881F991FE6
:1004B0004A95D1F708958F929F92AF92BF92CF92B3
:1004C000DF92EF92FF926B017C010E9436024B019A
:1004D0005C01C114D104E104F104B9F00E943602B8
:1004E000681979098A099B09683E7340810591055D
:1004F00080F321E0C21AD108E108F10888EE880EE5
:1005000083E0981EA11CB11CE4CFFF90EF90DF9018
:10051000CF90BF90AF909F908F900895AF92BF9271
:10052000CF92DF92EF92FF920F931F93CF93DF93BF
:100530006C017B018B01040F151FEB015E01AE18EE
:10054000BF08C017D10759F06991D601ED91FC9110
:100550000190F081E02DC6010995892B79F7C5013D
:10056000DF91CF911F910F91FF90EF90DF90CF908F
:10057000BF90AF900895FC01538D448D252F30E03E
:10058000842F90E0821B930B541710F0CF960895A0
:1005900001970895FC01918D828D981761F0A28DCD
:1005A000AE0FBF2FB11D5D968C91928D9F5F9F7393
:1005B000928F90E008958FEF9FEF0895FC01918D49
:1005C000828D981731F0828DE80FF11D858D90E0B6
:1005D00008958FEF9FEF0895FC01918D228D892F53
:1005E00090E0805C9F4F821B91098F73992708953B
:1005F00087EA92E00E94EC0221E0892B09F420E0D6
:10060000822F089580E090E0892B29F00E94F80263
:1006100081110C9400000895FC01A48DA80FB92F3E
:10062000B11DA35ABF4F2C91848D90E001968F731A
:100630009927848FA689B7892C93A089B1898C9139
:10064000837080648C93938D848D981306C0028888
:10065000F389E02D80818F7D80830895EF92FF9252
:100660000F931F93CF93DF93EC0181E0888F9B8DD5
:100670008C8D98131AC0E889F989808185FF15C08F
:100680009FB7F894EE89FF896083E889F9898081B2
:100690008370806480839FBF81E090E0DF91CF9181
:1006A0001F910F91FF90EF900895F62E0B8D10E0A3
:1006B0000F5F1F4F0F731127E02E8C8D8E110CC012
:1006C0000FB607FCFACFE889F989808185FFF5CF5D
:1006D000CE010E940C03F1CFEB8DEC0FFD2FF11D2D
:1006E000E35AFF4FF0829FB7F8940B8FEA89FB899A
:1006F00080818062CFCFCF93DF93EC01888D8823F8
:10070000B9F0AA89BB89E889F9898C9185FD03C074
:10071000808186FD0DC00FB607FCF7CF8C9185FF59
:10072000F2CF808185FFEDCFCE010E940C03E9CF8F
:10073000DF91CF910895CF92DF92EF92FF920F93C6
:100740001F93CF93DF93FC01C48121E02093020229
:10075000C093D40110922602109225028485682B42
:100760008BE992E00E940C01D0912502D13208F071
:1007700092C00E9436026B017C018091750281114A
:1007800065C082E08093750281E0809377028FEFED
:100790008093740210929902D0939802A2EEB1E075
:1007A000E8E7F2E080E0D81385C010929A028091C9
:1007B0009A02CC0FC82BC0939A02809176028130A6
:1007C00009F07CC0109276020E9436026B017C0117
:1007D00080919A028093BB00809128029091290217
:1007E000A0912A02B0912B02892B8A2B8B2B99F096
:1007F0000E943602009128021091290220912A02BB
:1008000030912B026C197D098E099F090617170775
:1008100028073907E0F18091BC0083FDD9CF85EC32
:100820008093BC000E9436026B017C0180917502AE
:10083000823009F445C0809174028F3F61F180914C
:100840007402803241F18091740225C080912802A7
:1008500090912902A0912A02B0912B02892B8A2B18
:100860008B2B09F48ACF0E94360200912802109146
:10087000290220912A0230912B026C197D098E09E0
:100880009F09061717072807390708F076CF8091C8
:1008900027020E94D901109226021092250210927E
:1008A0000202DF91CF911F910F91FF90EF90DF90A7
:1008B000CF9008959D9191938F5F75CF85EEB0CFC6
:1008C0008091280290912902A0912A02B0912B02D6
:1008D000892B8A2B8B2B09F4A9CF0E943602009119
:1008E00028021091290220912A0230912B026C19C2
:1008F0007D098E099F09061717072807390708F091
:1009000095CFC5CF089590E080E008950895FF92B7
:100910000F931F93CF93DF93F82E062FC7E0D0E0FD
:1009200010E061E0802F0E948D018F2D0E946401F4
:100930000C2E01C0880F0A94EAF7182B60E0802F74
:100940000E948D01219768F7812FDF91CF911F9130
:100950000F91FF900895EF92FF920F931F93CF9303
:10096000DF93809154030E946401892B31F060E091
:1009700070E0CB010E945B02F4CFDFB7F894609186
:100980005303809154030E948704082F60915303FE
:10099000809154030E948704C82F60915303809173
:1009A00054030E948704182FF12CE12C80915503E9
:1009B0008E151F0479F070F061E0809153030E945E
:1009C0008D0160E0809153030E948D018FEFE81A42
:1009D000F80AECCFDFBF6C2F70E090E080E0982F3A
:1009E000872F762F6627802B612B000F000B10E0DE
:1009F00030E020E0302F222711270027602B712BB9
:100A0000822B932BDF91CF911F910F91FF90EF904D
:100A10000895CF92DF92EF92FF92CF93DF93C82F8A
:100A2000C12CD12C7601D0E00E94AB04C60ED71E9B
:100A3000E81EF91E60E070E0CB010E945B02DF5F00
:100A4000CD13F2CF2C2F30E050E040E0C701B601CB
:100A50000E94710BCA01B901DF91CF91FF90EF9015
:100A6000DF90CF9008950F931F93CF938C01C62FE3
:100A70000E949B036C2F6460C8010E949B036C2F33
:100A80006B7FC8010E949B0383EC90E00197F1F714
:100A9000CF911F910F9108950F931F93CF93DF93E1
:100AA0008C01D62FC42F607F642B0E94330580E118
:100AB000D89FB00111246C2BC801DF91CF911F91F9
:100AC0000F910C94330540E060E884E493E00C94CB
:100AD0004C0541E00E944C0581E090E0089585EDD1
:100AE0008093BC008091280290912902A0912A0253
:100AF000B0912B020796A11DB11D23E0B695A795D5
:100B0000979587952A95D1F72091BC0024FD03C0C5
:100B10001092750208954091280250912902609127
:100B20002A0270912B02452B462B472B69F3009725
:100B3000A105B10541F025E32A95F1F700000197E1
:100B4000A109B109E1CF809127020C94D901FB01E1
:100B500001900020E9F73197AF01461B570BDC01EC
:100B6000ED91FC910280F381E02D09948F929F9288
:100B7000AF92BF92EF92FF920F931F93CF93DF93A9
:100B8000CDB7DEB7A1970FB6F894DEBF0FBECDBFCD
:100B90007C01FA01CB0119A2223008F42AE08E016F
:100BA0000F5D1F4F822E912CB12CA12CBF01A501EE
:100BB00094010E944F0BF901CA016A300CF5605D87
:100BC000D8016E938D01232B242B252B79F790E0F0
:100BD00080E0109721F0BD01C7010E94A705A196F2
:100BE0000FB6F894DEBF0FBECDBFDF91CF911F913E
:100BF0000F91FF90EF90BF90AF909F908F900895CE
:100C0000695CDECFCF92DF92EF92FF92CF93DF93BA
:100C10006B017C016DE287EA92E00E942E03EC01F9
:100C200044275527BA014C195D096E097F092AE04E
:100C300087EA92E00E94B6058C0F9D1FDF91CF914D
:100C4000FF90EF90DF90CF900895CF93DF93BC019A
:100C500087EA92E00E94A705EC016EE371E087EA63
:100C600092E00E94A7058C0F9D1FDF91CF91089500
:100C70002F923F924F925F926F927F928F929F92AC
:100C8000AF92BF92CF92DF92EF92FF921F93CF93DA
:100C9000DF93EC016A017B01722EAB019601CB015F
:100CA000B6010E94D40D61E471E0811126C04601B5
:100CB0005701E894B7F82FEF3FEF4FE75FE7C50123
:100CC000B4010E94D40D81110CC02FEF3FEF4FE70C
:100CD0005FE7C501B4010E94030C65E471E01816DA
:100CE00064F02FEF3FEF4FE75FE4C701B6010E94CA
:100CF000620D1816B4F469E471E0CE01DF91CF9172
:100D00001F91FF90EF90DF90CF90BF90AF909F909A
:100D10008F907F906F905F904F903F902F900C94AA
:100D2000A7052FEF3FEF4FE75FECC701B6010E9429
:100D3000030C87FDE0CF20E030E0A901C701B60138
:100D40000E94030C312C212C87FF0DC0E881F98112
:100D50000190F081E02D6DE2CE0109951C01F7FABA
:100D6000F094F7F8F09410E060E070E080E09FE32A
:100D7000711641F020E030E040E251E40E94080C9E
:100D80001F5FF6CFA70196010E94970B2B013C0134
:100D90000E94810C4B015C012AE0BC01A401CE0140
:100DA0000E94B6057C01E20CF31C1123E1F1C501A0
:100DB000B4010E94B00C9B01AC01C301B2010E94BE
:100DC000960B4B015C01E881F9810190F081E02DE7
:100DD0006EE2CE010995E80EF91E115020F120E0D7
:100DE00030E040E251E4C501B4010E94670D2B01DF
:100DF0003C010E94810C4B01B12CA12C2AE0B501D1
:100E0000A401CE010E94B605E80EF91EC501B40189
:100E10000E94B00C9B01AC01C301B2010E94960B71
:100E20004B015C01DACFC701DF91CF911F91FF9099
:100E3000EF90DF90CF90BF90AF909F908F907F907A
:100E40006F905F904F903F902F9008950C94750E87
:100E50001F920F920FB60F9211242F933F934F932F
:100E60005F936F937F938F939F93AF93BF93EF9312
:100E7000FF938091B900887F803609F44AC0F0F56D
:100E8000883209F4A7C018F5803109F49BC0B8F482
:100E9000882309F4F9C0883009F494C0FF91EF91D8
:100EA000BF91AF919F918F917F916F915F914F9182
:100EB0003F912F910F900FBE0F901F901895883182
:100EC00009F488C0803251F78093740214C08034D2
:100ED00009F49DC040F48033B9F38833F9F6809368
:100EE000740285ECB0C0803509F485C0883509F4FA
:100EF00096C0883499F60E946F05D0CF883909F4DE
:100F00008CC038F5883729F050F4883611F08037D6
:100F100029F683E0809375021092730257C08838D7
:100F200009F47BC0803919F0803809F0B7CF80917F
:100F30007302803208F071C0E091730281E08E0F7D
:100F4000809373028091BB00F0E0ED5AFD4F8083E7
:100F50003DC0803B39F0E0F4803A09F479C0883A2A
:100F600009F09CCF84E08093750210925002109299
:100F70004F02E0914D02F0914E02099580914F028F
:100F800081110FC081E080934F0210922D0209C0A1
:100F9000803C09F4A6CF883C09F4A3CF883B09F034
:100FA0007DCFE091500281E08E0F80935002F0E0FF
:100FB000E35DFD4F80818093BB0090915002809152
:100FC0004F0229C080919A028093BB0085EC8093E8
:100FD000BC0064CF9091990280919802981758F5BF
:100FE000E091990281E08E0F80939902F0E0E85839
:100FF000FD4F8081E9CFE091990281E08E0F8093CF
:1010000099028091BB00F0E0E858FD4F80839091F9
:101010009902809198029817C8F285E8D8CFE0919C
:10102000990281E08E0F809399028091BB00F0E0DD
:10103000E858FD4F80838091770281115CCF81E079
:101040008093760284EA8093BC001092750226CFCA
:1010500085EC8093BC0010927502809173028032FF
:1010600030F4E0917302F0E0ED5AFD4F1082609190
:10107000730270E0E0915102F091520283E592E038
:101080000995109273020ACF1092740234CF1F9206
:101090000F920FB60F9211242F933F938F939F932C
:1010A000AF93BF938091DA019091DB01A091DC01B5
:1010B000B091DD013091D90123E0230F2D3758F590
:1010C0000196A11DB11D2093D9018093DA0190935F
:1010D000DB01A093DC01B093DD018091DE019091F2
:1010E000DF01A091E001B091E1010196A11DB11DC8
:1010F0008093DE019093DF01A093E001B093E101C2
:10110000BF91AF919F918F913F912F910F900FBE03
:101110000F901F90189526E8230F0296A11DB11D70
:10112000D2CF1F920F920FB60F9211242F933F939D
:101130004F935F936F937F938F939F93AF93BF93DF
:10114000EF93FF9387EA92E00E940C03FF91EF91E7
:10115000BF91AF919F918F917F916F915F914F91CF
:101160003F912F910F900FBE0F901F9018951F92D7
:101170000F920FB60F9211242F938F939F93EF939B
:10118000FF93E091B702F091B8028081E091BD0237
:10119000F091BE0282FD1BC090818091C0028F5FE2
:1011A0008F732091C102821741F0E091C002F0E0FC
:1011B000E955FD4F958F8093C002FF91EF919F916C
:1011C0008F912F910F900FBE0F901F9018958081D7
:1011D000F4CFEBE9F2E01382128288EE93E0A0E014
:1011E000B0E084839583A683B7832AE031E031831E
:1011F0002083E7EAF2E01382128284839583A68338
:10120000B7838CE191E09183808385EC90E09587B2
:10121000848784EC90E09787868780EC90E0918BC0
:10122000808B81EC90E0938B828B82EC90E0958BAD
:10123000848B86EC90E0978B868B118E128E138EAA
:10124000148EE1E5F3E08AE391E0918380831582D7
:1012500016821782108680E090E0A0E8BFE38187C5
:101260009287A387B487E4E4F3E0138212828EE2CC
:1012700091E091838083118687E2848380E1828775
:1012800082E0838714860895789484B5826084BD53
:1012900084B5816084BD85B5826085BD85B581607A
:1012A00085BD80916E00816080936E0010928100F8
:1012B00080918100826080938100809181008160B3
:1012C0008093810080918000816080938000809174
:1012D000B10084608093B1008091B0008160809300
:1012E000B00080917A00846080937A0080917A00C7
:1012F000826080937A0080917A00816080937A0086
:1013000080917A00806880937A001092C100E09109
:10131000B702F091B80282E08083E091B302F091CD
:10132000B4021082E091B502F091B60280E18083B0
:101330001092BF02E091BB02F091BC0286E0808374
:10134000E091B902F091BA02808180618083E091DE
:10135000B902F091BA02808188608083E091B9027D
:10136000F091BA02808180688083E091B902F091A7
:10137000BA0280818F7D8083109224021092230212
:1013800010922602109225020E94BB0183EB90E08E
:1013900090934E0280934D0284EB90E09093520222
:1013A000809351021092490380914F03823018F0CC
:1013B00098E09093490380934C0362E370E080E0EF
:1013C00090E00E945B026091500384E493E00E94ED
:1013D0009B0368EE73E080E090E00E945B0260E3B4
:1013E00084E493E00E943305CBE4D6E4CE01019778
:1013F000F1F760E384E493E00E9433052197F1F76D
:1014000060E384E493E00E94330583E592E0019772
:10141000F1F760E284E493E00E94330560914903B0
:10142000606240E084E493E00E944C0584E0809395
:101430004A0340E06CE084E493E00E944C0540E005
:1014400061E084E493E00E944C058BE39FE1019707
:10145000F1F780914D0381110E946305C2E0C093B2
:101460004B0340E066E084E493E00E944C0540E0DA
:1014700062E084E493E00E944C058BE39FE10197D6
:10148000F1F788E08093500360E084E493E00E94E9
:101490009B038DE491E00E94250662E084E00E94B7
:1014A000FA018DE591E00E942506C093530383E085
:1014B0008093540361E082E00E94FA0160E0809131
:1014C00054030E94FA0181E08093550380E791E084
:1014D0000E94250662E871E087EA92E00E94A70573
:1014E0000E94AB0497FFCBC00E94020669E871E03E
:1014F00087EA92E00E94A70584E10E94090597FF10
:10150000C6C00E94020669E871E087EA92E00E9484
:10151000A70580E090E0A1EEB3EC80935A0390938E
:101520005B03A0935C03B0935D036CE871E087EA12
:1015300092E00E94A70540915A0350915B0360918D
:101540005C0370915D0322E087EA92E00E94380616
:101550008AE00E9409050E94B20C0E947A0C6093F6
:10156000560370935703809358039093590381EA6D
:1015700091E00E94250682EB91E00E942506C0E0E2
:10158000D0E08AE00E9409050091560310915703AC
:101590002091580330915903601B710B820B930B00
:1015A0000E94B20C20915A0330915B0340915C037E
:1015B00050915D030E94080C6093D5017093D60191
:1015C0008093D7019093D8016CEB71E087EA92E0A9
:1015D0000E94A7054091D5015091D6016091D70195
:1015E0007091D80125E087EA92E00E94380685ECE8
:1015F00091E00E9425060E9463056CEB71E084E493
:1016000093E00E94A7054091D5015091D6016091C9
:10161000D7017091D80122E084E493E00E9438065B
:101620006CEC71E084E493E00E94A70584E00E94E2
:101630006401019799F48AE00E9409050E94B20CA6
:101640000E947A0C6093560370935703809358035B
:10165000909359038FEC91E00E94250664E670E0B8
:1016600080E090E00E945B02209709F48ACF0E94FC
:10167000F802882309F485CF0E94000082CF2AE077
:10168000AB01BC0187EA92E00E94B6052FCF2AE0A9
:10169000AB01BC0187EA92E00E94B60534CFA1E21B
:1016A0001A2EAA1BBB1BFD010DC0AA1FBB1FEE1FDC
:1016B000FF1FA217B307E407F50720F0A21BB30B27
:1016C000E40BF50B661F771F881F991F1A9469F7A3
:1016D00060957095809590959B01AC01BD01CF01FF
:1016E0000895052E97FB1EF400940E94880B57FD69
:1016F00007D00E944F0B07FC03D04EF40C94880BCC
:1017000050954095309521953F4F4F4F5F4F08952D
:1017100090958095709561957F4F8F4F9F4F08955D
:10172000EE0FFF1F0590F491E02D09945058BB2750
:10173000AA270E94AE0B0C94280D0E941A0D38F0B7
:101740000E94210D20F039F49F3F19F426F40C94E7
:10175000170D0EF4E095E7FB0C94110DE92F0E9494
:10176000390D58F3BA17620773078407950720F0FD
:1017700079F4A6F50C945B0D0EF4E0950B2EBA2FC0
:10178000A02D0B01B90190010C01CA01A001112487
:10179000FF27591B99F0593F50F4503E68F11A1633
:1017A000F040A22F232F342F4427585FF3CF4695C4
:1017B00037952795A795F0405395C9F77EF41F16E6
:1017C000BA0B620B730B840BBAF09150A1F0FF0FB0
:1017D000BB1F661F771F881FC2F70EC0BA0F621F9C
:1017E000731F841F48F4879577956795B795F7958C
:1017F0009E3F08F0B0CF9395880F08F09927EE0F21
:101800009795879508950E94ED0C08F481E008955E
:101810000E941C0C0C94280D0E94210D58F00E946F
:101820001A0D40F029F45F3F29F00C94110D51116D
:101830000C945C0D0C94170D0E94390D68F39923DC
:10184000B1F3552391F3951B550BBB27AA276217BC
:101850007307840738F09F5F5F4F220F331F441FC9
:10186000AA1FA9F335D00E2E3AF0E0E832D09150FD
:101870005040E695001CCAF72BD0FE2F29D0660FEA
:10188000771F881FBB1F261737074807AB07B0E82D
:1018900009F0BB0B802DBF01FF2793585F4F3AF033
:1018A0009E3F510578F00C94110D0C945C0D5F3F38
:1018B000E4F3983ED4F3869577956795B795F795B9
:1018C0009F5FC9F7880F911D9695879597F90895A1
:1018D000E1E0660F771F881FBB1F6217730784073D
:1018E000BA0720F0621B730B840BBA0BEE1F88F74C
:1018F000E09508950E94810C6894B1110C945C0DE0
:1019000008950E94410D88F09F5798F0B92F9927AC
:10191000B751B0F0E1F0660F771F881F991F1AF0DA
:10192000BA95C9F714C0B13091F00E945B0DB1E0D7
:1019300008950C945B0D672F782F8827B85F39F0D6
:10194000B93FCCF3869577956795B395D9F73EF473
:1019500090958095709561957F4F8F4F9F4F08951B
:10196000E89409C097FB3EF4909580957095619539
:101970007F4F8F4F9F4F9923A9F0F92F96E9BB27EF
:101980009395F695879577956795B795F111F8CF6B
:10199000FAF4BB0F11F460FF1BC06F5F7F4F8F4FD6
:1019A0009F4F16C0882311F096E911C0772321F0CC
:1019B0009EE8872F762F05C0662371F096E8862F64
:1019C00070E060E02AF09A95660F771F881FDAF7BB
:1019D000880F9695879597F90895990F0008550FE8
:1019E000AA0BE0E8FEEF16161706E807F907C0F0A5
:1019F00012161306E407F50798F0621B730B840BAD
:101A0000950B39F40A2661F0232B242B252B21F486
:101A100008950A2609F4A140A6958FEF811D811D26
:101A2000089597F99F6780E870E060E008959FEF60
:101A300080EC089500240A94161617061806090665
:101A4000089500240A941216130614060506089534
:101A5000092E0394000C11F4882352F0BB0F40F4BC
:101A6000BF2B11F460FF04C06F5F7F4F8F4F9F4FFC
:101A7000089557FD9058440F551F59F05F3F71F07E
:101A80004795880F97FB991F61F09F3F79F08795E5
:101A90000895121613061406551FF2CF4695F1DF6E
:101AA00008C0161617061806991FF1CF86957105FE
:101AB000610508940895E894BB2766277727CB0132
:101AC00097F908950E94ED0C08F48FEF08950E9495
:101AD0007A0D0C94280D0E941A0D38F00E94210DE9
:101AE00020F0952311F00C94110D0C94170D112476
:101AF0000C945C0D0E94390D70F3959FC1F3950F06
:101B000050E0551F629FF001729FBB27F00DB11D81
:101B1000639FAA27F00DB11DAA1F649F6627B00D11
:101B2000A11D661F829F2227B00DA11D621F739FFA
:101B3000B00DA11D621F839FA00D611D221F749F08
:101B40003327A00D611D231F849F600D211D822F4F
:101B5000762F6A2F11249F5750409AF0F1F0882376
:101B60004AF0EE0FFF1FBB1F661F771F881F9150A3
:101B70005040A9F79E3F510580F00C94110D0C9434
:101B80005C0D5F3FE4F3983ED4F3869577956795B7
:101B9000B795F795E7959F5FC1F7FE2B880F911DCD
:101BA0009695879597F908950E94ED0C880B990BEF
:101BB00008950F931F93CF93DF938230910510F414
:101BC00082E090E0E0916003F091610330E020E07A
:101BD000B0E0A0E0309799F42115310509F44AC02E
:101BE000281B390B24303105D8F58A819B8161157A
:101BF000710589F1FB0193838283FE0111C040814D
:101C000051810281138148175907E0F0481759079D
:101C100099F4109761F012960C93129713961C93F7
:101C20003296CF01DF91CF911F910F9108950093CC
:101C3000600310936103F4CF2115310551F0421771
:101C4000530738F0A901DB019A01BD01DF01F8015A
:101C5000C1CFEF01F9CF9093610380936003CDCFA3
:101C6000FE01E20FF31F81939193225031093983D2
:101C70002883D7CF20915E0330915F03232B41F45B
:101C8000209102013091030130935F0320935E03A2
:101C900020910001309101012115310541F42DB74A
:101CA0003EB74091040150910501241B350BE09192
:101CB0005E03F0915F03E217F307A0F42E1B3F0BC6
:101CC0002817390778F0AC014E5F5F4F24173507AE
:101CD00048F04E0F5F1F50935F0340935E03819364
:101CE00091939FCFF0E0E0E09CCFCF93DF930097FC
:101CF000E9F0FC01329713821282A0916003B09147
:101D00006103ED0130E020E01097A1F420813181E2
:101D1000820F931F20915E0330915F0328173907CC
:101D200009F061C0F0935F03E0935E03DF91CF9110
:101D30000895EA01CE17DF07E8F54A815B819E012D
:101D400041155105B1F7E901FB83EA8349915991A6
:101D5000C40FD51FEC17FD0761F4808191810296B5
:101D6000840F951FE90199838883828193819B83E6
:101D70008A83F0E0E0E012968D919C911397009792
:101D8000B9F52D913C911197CD010296820F931FC9
:101D900020915E0330915F032817390739F6309799
:101DA00051F51092610310926003B0935F03A0930A
:101DB0005E03BCCFD383C28340815181840F951FC2
:101DC000C817D90761F44E5F5F4F88819981480F2A
:101DD000591F518340838A819B819383828321157C
:101DE000310509F0B0CFF0936103E09360039ECF1B
:101DF000FD01DC01C0CF13821282D7CFF894FFCF50
:101E0000000062038000000000000C01DF0083047A
:101E1000B500D800C500B600000000002E038E02F9
:101E2000BB027B03EC02CA02DE020000000069056F
:101E30008E028304820400000000860426070D0A37
:101E4000006E616E00696E66006F7666004C4344FA
:101E500020696E697469616C697A656400427574A1
:101E6000746F6E20696E697469616C697A6564006B
:101E70005363616C6520696E697469616C697A6528
:101E80006400526561643A200020200043616C695F
:101E900062726174696F6E20666163746F723A205A
:101EA000005461726520696E697469616C697A6554
:101EB000640052656164696E67733A0057656967CB
:101EC00068743A2000206772616D730020670054C7
:041ED00061726500D6
:00000001FF
