:100000000C9462000C948A000C948A000C948A0070
:100010000C948A000C948A000C948A000C948A0038
:100020000C948A000C948A000C948A000C948A0028
:100030000C948A000C948A000C948A000C948A0018
:100040000C9447080C948A000C94B7080C949108FF
:100050000C948A000C948A000C948A000C948A00F8
:100060000C9428070C948A0000000000240027004C
:100070002A0000000000250028002B0000000000DE
:1000800023002600290004040404040404040202DA
:100090000202020203030303030301020408102007
:1000A0004080010204081020010204081020000012
:1000B0000008000201000003040700000000000027
:1000C0000000E90811241FBECFEFD8E0DEBFCDBF8E
:1000D00012E0A0E0B1E0E8E9FEE102C005900D9277
:1000E000A437B107D9F724E0A4E7B2E001C01D921C
:1000F000A230B207E1F710E0C2E6D0E004C02197D9
:10010000FE010E94DC0BC136D107C9F70E944409E9
:100110000C944A0F0C9400002091EF02260F332715
:10012000331F21323105ECF420911503FC0190E0DE
:1001300080E0243069F082E00895A091EF022191DF
:10014000AC0143535D4FA40FB52FB11D2C93019605
:10015000861798F38091EF02680F6093EF0280E0BA
:10016000089581E00895089508950895E091C402E6
:100170008091C302E81730F4F0E0ED55FD4F808127
:1001800090E008958FEF9FEF08959091C4028091C1
:10019000C3022FEF3FEF981748F4E92FF0E0ED5539
:1001A000FD4F208130E09F5F9093C402C901089504
:1001B0008091C3029091C402891B990B0895CF923C
:1001C000DF92EF92FF920F931F93CF93DF937C0107
:1001D000CB018A012091A202222389F0EB016B015D
:1001E000C40ED51ECC15DD0569F06991D701ED91DE
:1001F000FC910190F081E02DC7010995F3CF642FA8
:100200000E948C00C801DF91CF911F910F91FF9048
:10021000EF90DF90CF900895CF93DF931F92CDB7EB
:10022000DEB769832091A2022223F9F02091C50252
:10023000203258F021E030E0FC013383228390E04B
:1002400080E00F90DF91CF9108958091C602E82F52
:10025000F0E0EE57FD4F998190838F5F8093C60247
:100260008093C50281E090E0ECCF61E0CE01019681
:100270000E948C00F7CF833081F028F4813099F010
:100280008230A9F008958730A9F08830C9F0843011
:10029000B1F4809180008F7D03C0809180008F77C2
:1002A00080938000089584B58F7784BD089584B5C8
:1002B0008F7DFBCF8091B0008F778093B000089541
:1002C0008091B0008F7DF9CFCF93DF93282F30E05E
:1002D000F901E255FF4F8491F901E656FF4FD491A1
:1002E000F901EA57FF4FC491CC23A1F081110E947C
:1002F0003B01EC2FF0E0EE0FFF1FE458FF4FA591FC
:10030000B491EC91ED2381E090E009F480E0DF917D
:10031000CF91089580E090E0FACF1F93CF93DF93C1
:10032000282F30E0F901E255FF4F8491F901E6569C
:10033000FF4FD491F901EA57FF4FC491CC23A9F0A4
:10034000162F81110E943B01EC2FF0E0EE0FFF1FF2
:10035000EE58FF4FA591B4918FB7F894EC9111111D
:1003600008C0D095DE23DC938FBFDF91CF911F9122
:100370000895DE2BF8CF1092150381E080931703C8
:100380001092160361E082E10E948D0161E083E139
:100390000E948D01E9EBF0E080818E7F8083808177
:1003A0008D7F808388E48093B80085E48093BC00CF
:1003B0000895CF93DF9391E09093CC028823B9F016
:1003C000C091B800D091BA008091BC008A7B809324
:1003D000BC0060E082E10E948D0160E083E10E9448
:1003E0008D010E94BB01D093BA00C093B800DF9189
:1003F000CF910895CF93DF9390E0FC01E656FF4F35
:1004000024918A579F4FFC0184918823C9F090E082
:10041000880F991FFC01E859FF4FA591B491FC0189
:10042000EE58FF4FC591D49161110DC09FB7F8945C
:100430008C91209582238C938881282328839FBFC9
:10044000DF91CF910895623051F49FB7F8943C91B9
:10045000822F809583238C93E8812E2BEFCF8FB74B
:10046000F894EC912E2B2C938FBFEACF3FB7F894E2
:1004700080917E0290917F02A0918002B0918102D2
:1004800026B5A89B05C02F3F19F00196A11DB11DEF
:100490003FBFBA2FA92F982F8827BC01CD01620F2B
:1004A000711D811D911D42E0660F771F881F991FE6
:1004B0004A95D1F708958F929F92AF92BF92CF92B3
:1004C000DF92EF92FF926B017C010E9436024B019A
:1004D0005C01C114D104E104F104B9F00E943602B8
:1004E000681979098A099B09683E7340810591055D
:1004F00080F321E0C21AD108E108F10888EE880EE5
:1005000083E0981EA11CB11CE4CFFF90EF90DF9018
:10051000CF90BF90AF909F908F900895AF92BF9271
:10052000CF92DF92EF92FF920F931F93CF93DF93BF
:100530006C017B018B01040F151FEB015E01AE18EE
:10054000BF08C017D10759F06991D601ED91FC9110
:100550000190F081E02DC6010995892B79F7C5013D
:10056000DF91CF911F910F91FF90EF90DF90CF908F
:10057000BF90AF900895FC01538D448D252F30E03E
:10058000842F90E0821B930B541710F0CF960895A0
:1005900001970895FC01918D828D981761F0A28DCD
:1005A000AE0FBF2FB11D5D968C91928D9F5F9F7393
:1005B000928F90E008958FEF9FEF0895FC01918D49
:1005C000828D981731F0828DE80FF11D858D90E0B6
:1005D00008958FEF9FEF0895FC01918D228D892F53
:1005E00090E0805C9F4F821B91098F73992708953B
:1005F00087E493E00E94EC0221E0892B09F420E0DB
:10060000822F089580E090E0892B29F00E94F80263
:1006100081110C9400000895FC01A48DA80FB92F3E
:10062000B11DA35ABF4F2C91848D90E001968F731A
:100630009927848FA689B7892C93A089B1898C9139
:10064000837080648C93938D848D981306C0028888
:10065000F389E02D80818F7D80830895EF92FF9252
:100660000F931F93CF93DF93EC0181E0888F9B8DD5
:100670008C8D98131AC0E889F989808185FF15C08F
:100680009FB7F894EE89FF896083E889F9898081B2
:100690008370806480839FBF81E090E0DF91CF9181
:1006A0001F910F91FF90EF900895F62E0B8D10E0A3
:1006B0000F5F1F4F0F731127E02E8C8D8E110CC012
:1006C0000FB607FCFACFE889F989808185FFF5CF5D
:1006D000CE010E940C03F1CFEB8DEC0FFD2FF11D2D
:1006E000E35AFF4FF0829FB7F8940B8FEA89FB899A
:1006F00080818062CFCFCF93DF93EC01888D8823F8
:10070000B9F0AA89BB89E889F9898C9185FD03C074
:10071000808186FD0DC00FB607FCF7CF8C9185FF59
:10072000F2CF808185FFEDCFCE010E940C03E9CF8F
:10073000DF91CF910895CF92DF92EF92FF920F93C6
:100740001F93CF93DF93FC01C48121E02093A20289
:10075000C09374021092C6021092C5028485682B61
:100760008BE393E00E940C01D091C502D13208F0D6
:1007700092C00E9436026B017C01809115038111A9
:1007800065C082E08093150381E0809317038FEFAB
:100790008093140310923903D0933803A2E8B2E097
:1007A000E8E1F3E080E0D81385C010923A0380912D
:1007B0003A03CC0FC82BC0933A03809116038130C3
:1007C00009F07CC0109216030E9436026B017C0176
:1007D00080913A038093BB008091C8029091C90236
:1007E000A091CA02B091CB02892B8A2B8B2B99F056
:1007F0000E9436020091C8021091C9022091CA02DB
:100800003091CB026C197D098E099F0906171707D5
:1008100028073907E0F18091BC0083FDD9CF85EC32
:100820008093BC000E9436026B017C01809115030D
:10083000823009F445C0809114038F3F61F18091AB
:100840001403803241F18091140325C08091C802C5
:100850009091C902A091CA02B091CB02892B8A2B38
:100860008B2B09F48ACF0E9436020091C8021091A6
:10087000C9022091CA023091CB026C197D098E0900
:100880009F09061717072807390708F076CF8091C8
:10089000C7020E94D9011092C6021092C50210929E
:1008A000A202DF91CF911F910F91FF90EF90DF9007
:1008B000CF9008959D9191938F5F75CF85EEB0CFC6
:1008C0008091C8029091C902A091CA02B091CB0256
:1008D000892B8A2B8B2B09F4A9CF0E943602009119
:1008E000C8021091C9022091CA023091CB026C1942
:1008F0007D098E099F09061717072807390708F091
:1009000095CFC5CF089590E080E008950895FF92B7
:100910000F931F93CF93DF93F82E062FC7E0D0E0FD
:1009200010E061E0802F0E948D018F2D0E946401F4
:100930000C2E01C0880F0A94EAF7182B60E0802F74
:100940000E948D01219768F7812FDF91CF911F9130
:100950000F91FF900895EF92FF920F931F93CF9303
:10096000DF938091F4030E946401892B31F060E0F1
:1009700070E0CB010E945B02F4CFDFB7F894609186
:10098000F3038091F4030E948704082F6091F3031E
:100990008091F4030E948704C82F6091F303809133
:1009A000F4030E948704182FF12CE12C8091F503A9
:1009B0008E151F0479F070F061E08091F3030E94BE
:1009C0008D0160E08091F3030E948D018FEFE81AA2
:1009D000F80AECCFDFBF6C2F70E090E080E0982F3A
:1009E000872F762F6627802B612B000F000B10E0DE
:1009F00030E020E0302F222711270027602B712BB9
:100A0000822B932BDF91CF911F910F91FF90EF904D
:100A10000895CF92DF92EF92FF92CF93DF93C82F8A
:100A2000C12CD12C7601D0E00E94AB04C60ED71E9B
:100A3000E81EF91E60E070E0CB010E945B02DF5F00
:100A4000CD13F2CF2C2F30E050E040E0C701B601CB
:100A50000E94BD0BCA01B901DF91CF91FF90EF90C9
:100A6000DF90CF9008950F931F93CF938C01C62FE3
:100A70000E949B036C2F6460C8010E949B036C2F33
:100A80006B7FC8010E949B0383EC90E00197F1F714
:100A9000CF911F910F9108950F931F93CF93DF93E1
:100AA0008C01D62FC42F607F642B0E94330580E118
:100AB000D89FB00111246C2BC801DF91CF911F91F9
:100AC0000F910C94330540E060E884EE93E00C94C1
:100AD0004C0541E00E944C0581E090E0089585EDD1
:100AE0008093BC008091C8029091C902A091CA0273
:100AF000B091CB020796A11DB11D23E0B695A79535
:100B0000979587952A95D1F72091BC0024FD03C0C5
:100B10001092150308954091C8025091C902609146
:100B2000CA027091CB02452B462B472B69F30097E5
:100B3000A105B10541F025E32A95F1F700000197E1
:100B4000A109B109E1CF8091C7020C94D901FB0141
:100B500001900020E9F73197AF01461B570BDC01EC
:100B6000ED91FC910280F381E02D09948F929F9288
:100B7000AF92BF92EF92FF920F931F93CF93DF93A9
:100B8000CDB7DEB7A1970FB6F894DEBF0FBECDBFCD
:100B90007C01FA01CB0119A2223008F42AE08E016F
:100BA0000F5D1F4F822E912CB12CA12CBF01A501EE
:100BB00094010E949B0BF901CA016A300CF5605D3B
:100BC000D8016E938D01232B242B252B79F790E0F0
:100BD00080E0109721F0BD01C7010E94A705A196F2
:100BE0000FB6F894DEBF0FBECDBFDF91CF911F913E
:100BF0000F91FF90EF90BF90AF909F908F900895CE
:100C0000695CDECFCF92DF92EF92FF92CF93DF93BA
:100C10006B017C016DE287E493E00E942E03EC01FE
:100C200044275527BA014C195D096E097F092AE04E
:100C300087E493E00E94B6058C0F9D1FDF91CF9152
:100C4000FF90EF90DF90CF900895CF93DF93BC019A
:100C500087E493E00E94A705EC016EE371E087E46E
:100C600093E00E94A7058C0F9D1FDF91CF910895FF
:100C70002F923F924F925F926F927F928F929F92AC
:100C8000AF92BF92CF92DF92EF92FF921F93CF93DA
:100C9000DF93EC016A017B01722EAB019601CB015F
:100CA000B6010E94200E61E471E0811126C0460168
:100CB0005701E894B7F82FEF3FEF4FE75FE7C50123
:100CC000B4010E94200E81110CC02FEF3FEF4FE7BF
:100CD0005FE7C501B4010E944F0C65E471E018168E
:100CE00064F02FEF3FEF4FE75FE4C701B6010E94CA
:100CF000AE0D1816B4F469E471E0CE01DF91CF9126
:100D00001F91FF90EF90DF90CF90BF90AF909F909A
:100D10008F907F906F905F904F903F902F900C94AA
:100D2000A7052FEF3FEF4FE75FECC701B6010E9429
:100D30004F0C87FDE0CF20E030E0A901C701B601EC
:100D40000E944F0C312C212C87FF0DC0E881F981C6
:100D50000190F081E02D6DE2CE0109951C01F7FABA
:100D6000F094F7F8F09410E060E070E080E09FE32A
:100D7000711641F020E030E040E251E40E94540C52
:100D80001F5FF6CFA70196010E94E30B2B013C01E8
:100D90000E94CD0C4B015C012AE0BC01A401CE01F4
:100DA0000E94B6057C01E20CF31C1123E1F1C501A0
:100DB000B4010E94FC0C9B01AC01C301B2010E9472
:100DC000E20B4B015C01E881F9810190F081E02D9B
:100DD0006EE2CE010995E80EF91E115020F120E0D7
:100DE00030E040E251E4C501B4010E94B30D2B0193
:100DF0003C010E94CD0C4B01B12CA12C2AE0B50185
:100E0000A401CE010E94B605E80EF91EC501B40189
:100E10000E94FC0C9B01AC01C301B2010E94E20BD9
:100E20004B015C01DACFC701DF91CF911F91FF9099
:100E3000EF90DF90CF90BF90AF909F908F907F907A
:100E40006F905F904F903F902F9008950C94C10E3B
:100E50001F920F920FB60F9211242F933F934F932F
:100E60005F936F937F938F939F93AF93BF93EF9312
:100E7000FF938091B900887F803609F44AC0F0F56D
:100E8000883209F4A7C018F5803109F49BC0B8F482
:100E9000882309F4F9C0883009F494C0FF91EF91D8
:100EA000BF91AF919F918F917F916F915F914F9182
:100EB0003F912F910F900FBE0F901F901895883182
:100EC00009F488C0803251F78093140314C0803431
:100ED00009F49DC040F48033B9F38833F9F6809368
:100EE000140385ECB0C0803509F485C0883509F459
:100EF00096C0883499F60E946F05D0CF883909F4DE
:100F00008CC038F5883729F050F4883611F08037D6
:100F100029F683E0809315031092130357C0883895
:100F200009F47BC0803919F0803809F0B7CF80917F
:100F30001303803208F071C0E091130381E08E0F3B
:100F4000809313038091BB00F0E0ED50FD4F808350
:100F50003DC0803B39F0E0F4803A09F479C0883A2A
:100F600009F09CCF84E0809315031092F002109258
:100F7000EF02E091ED02F091EE0209958091EF020F
:100F800081110FC081E08093EF021092CD0209C061
:100F9000803C09F4A6CF883C09F4A3CF883B09F034
:100FA0007DCFE091F00281E08E0F8093F002F0E0BF
:100FB000E353FD4F80818093BB009091F0028091BC
:100FC000EF0229C080913A038093BB0085EC8093A7
:100FD000BC0064CF9091390380913803981758F57D
:100FE000E091390381E08E0F80933903F0E0E85EF1
:100FF000FC4F8081E9CFE091390381E08E0F80932F
:1010000039038091BB00F0E0E85EFC4F8083909153
:101010003903809138039817C8F285E8D8CFE0915A
:10102000390381E08E0F809339038091BB00F0E09B
:10103000E85EFC4F80838091170381115CCF81E0D3
:101040008093160384EA8093BC001092150326CF88
:1010500085EC8093BC0010921503809113038032BD
:1010600030F4E0911303F0E0ED50FD4F10826091F9
:10107000130370E0E091F102F091F20283EF92E04D
:101080000995109213030ACF1092140334CF1F92C4
:101090000F920FB60F9211242F933F938F939F932C
:1010A000AF93BF9380917A0290917B02A0917C02D2
:1010B000B0917D023091790223E0230F2D3758F54E
:1010C0000196A11DB11D2093790280937A0290931D
:1010D0007B02A0937C02B0937D0280917E0290916E
:1010E0007F02A0918002B09181020196A11DB11DE5
:1010F00080937E0290937F02A0938002B09381023E
:10110000BF91AF919F918F913F912F910F900FBE03
:101110000F901F90189526E8230F0296A11DB11D70
:10112000D2CF1F920F920FB60F9211242F933F939D
:101130004F935F936F937F938F939F93AF93BF93DF
:10114000EF93FF9387E493E00E940C03FF91EF91EC
:10115000BF91AF919F918F917F916F915F914F91CF
:101160003F912F910F900FBE0F901F9018951F92D7
:101170000F920FB60F9211242F938F939F93EF939B
:10118000FF93E0915703F09158038081E0915D0354
:10119000F0915E0382FD1BC09081809160038F5FA0
:1011A0008F7320916103821741F0E0916003F0E0BA
:1011B000E95BFC4F958F80936003FF91EF919F91C6
:1011C0008F912F910F900FBE0F901F9018958081D7
:1011D000F4CFEBE3F3E01382128288EE93E0A0E019
:1011E000B0E084839583A683B7832AE031E031831E
:1011F0002083E7E4F3E01382128284839583A6833D
:10120000B7838CE191E09183808385EC90E09587B2
:10121000848784EC90E09787868780EC90E0918BC0
:10122000808B81EC90E0938B828B82EC90E0958BAD
:10123000848B86EC90E0978B868B118E128E138EAA
:10124000148EE1EFF3E08AE391E0918380831582CD
:1012500016821782108680E090E0A0E8BFE38187C5
:101260009287A387B487E4EEF3E0138212828EE2C2
:1012700091E091838083118687E2848380E1828775
:1012800082E0838714860895789484B5826084BD53
:1012900084B5816084BD85B5826085BD85B581607A
:1012A00085BD80916E00816080936E0010928100F8
:1012B00080918100826080938100809181008160B3
:1012C0008093810080918000816080938000809174
:1012D000B10084608093B1008091B0008160809300
:1012E000B00080917A00846080937A0080917A00C7
:1012F000826080937A0080917A00816080937A0086
:1013000080917A00806880937A001092C100E09109
:101310005703F091580382E08083E0915303F091EA
:1013200054031082E0915503F091560380E18083CD
:1013300010925F03E0915B03F0915C0386E0808391
:10134000E0915903F0915A03808180618083E0919C
:101350005903F0915A03808188608083E09159039A
:10136000F0915A03808180688083E0915903F09165
:101370005A0380818F7D80838DE491E00E94250651
:101380006DE671E087E493E00E94A7058DE491E0AB
:101390000E94250686E891E00E94250684E991E0F6
:1013A0000E9425068AEA91E00E9425068CEB91E0D6
:1013B0000E9425068DEC91E00E9425068CED91E0BF
:1013C0000E9425068DE491E00E9425061092C40239
:1013D0001092C3021092C6021092C5020E94BB0175
:1013E00083EB90E09093EE028093ED0284EB90E02B
:1013F0009093F2028093F1021092E9038091EF033F
:10140000823018F098E09093E9038093EC0362E354
:1014100070E080E090E00E945B026091F00384EE57
:1014200093E00E949B0368EE73E080E090E00E94EE
:101430005B0260E384EE93E00E943305CBE4D6E4E4
:10144000CE010197F1F760E384EE93E00E9433054B
:101450002197F1F760E384EE93E00E94330583E582
:1014600092E00197F1F760E284EE93E00E94330589
:101470006091E903606240E084EE93E00E944C05D5
:1014800084E08093EA0340E06CE084EE93E00E9405
:101490004C0540E061E084EE93E00E944C058BE354
:1014A0009FE10197F1F78091ED0381110E9463059F
:1014B000C2E0C093EB0340E066E084EE93E00E945C
:1014C0004C0540E062E084EE93E00E944C058BE323
:1014D0009FE10197F1F788E08093F00360E084EEEC
:1014E00093E00E949B038CEE91E00E94250680E42D
:1014F00091E00E94250662E084E00E94FA018CEFF0
:1015000091E00E94250680E491E00E942506C093A8
:10151000F30383E08093F40361E082E00E94FA0128
:1015200060E08091F4030E94FA0181E08093F5036A
:101530008FE092E00E94250680E491E00E9425065B
:1015400061E272E087E493E00E94A7050E94AB0489
:1015500097FFE1C00E94020668E272E087E493E030
:101560000E94A70584E10E94090597FFDCC00E9444
:10157000020688E292E00E94250680E491E00E9443
:10158000250680E090E0A1EEB3EC8093FA039093FF
:10159000FB03A093FC03B093FD036BE272E087E4CE
:1015A00093E00E94A7054091FA035091FB036091DC
:1015B000FC037091FD0322E087E493E00E9438066B
:1015C0006EE371E087E493E00E94A70580E491E078
:1015D0000E9425068AE00E9409050E94FE0C0E94D6
:1015E000C60C6093F6037093F7038093F80390930F
:1015F000F90380E492E00E94250680E491E00E94D5
:10160000250681E592E00E94250680E491E00E9493
:101610002506C0E0D0E08AE00E9409050091F603AB
:101620001091F7032091F8033091F903601B710BBF
:10163000820B930B0E94FE0C2091FA033091FB0366
:101640004091FC035091FD030E94540C609375027D
:101650007093760280937702909378026BE572E044
:1016600087E493E00E94A7054091750250917602AD
:101670006091770270917802705825E087E493E0DA
:101680000E94380684E692E00E9425060E946305C7
:101690006BE572E084EE93E00E94A705409175022D
:1016A000509176026091770270917802705822E032
:1016B00084EE93E00E9438066BE672E084EE93E0DD
:1016C0000E94A70584E00E946401892B99F48AE0B6
:1016D0000E9409050E94FE0C0E94C60C6093F6034E
:1016E0007093F7038093F8039093F9038EE692E0EA
:1016F0000E94250664E670E080E090E00E945B02B4
:10170000209709F488CF0E94F802882309F483CF38
:101710000E94000080CF2AE0AB01BC0187E493E087
:101720000E94B60519CF2AE0AB01BC0187E493E023
:101730000E94B6051ECFA1E21A2EAA1BBB1BFD01FB
:101740000DC0AA1FBB1FEE1FFF1FA217B307E407A0
:10175000F50720F0A21BB30BE40BF50B661F771FF8
:10176000881F991F1A9469F76095709580959095D8
:101770009B01AC01BD01CF010895052E97FB1EF41E
:1017800000940E94D40B57FD07D00E949B0B07FCCE
:1017900003D04EF40C94D40B509540953095219580
:1017A0003F4F4F4F5F4F089590958095709561958D
:1017B0007F4F8F4F9F4F0895EE0FFF1F0590F491BD
:1017C000E02D09945058BB27AA270E94FA0B0C94CD
:1017D000740D0E94660D38F00E946D0D20F039F4F2
:1017E0009F3F19F426F40C94630D0EF4E095E7FB8B
:1017F0000C945D0DE92F0E94850D58F3BA1762070E
:1018000073078407950720F079F4A6F50C94A70DCB
:101810000EF4E0950B2EBA2FA02D0B01B90190010B
:101820000C01CA01A0011124FF27591B99F0593F4F
:1018300050F4503E68F11A16F040A22F232F342F97
:101840004427585FF3CF469537952795A795F040E5
:101850005395C9F77EF41F16BA0B620B730B840BFA
:10186000BAF09150A1F0FF0FBB1F661F771F881FB2
:10187000C2F70EC0BA0F621F731F841F48F487950A
:1018800077956795B795F7959E3F08F0B0CF9395FC
:10189000880F08F09927EE0F9795879508950E9475
:1018A000390D08F481E008950E94680C0C94740DC1
:1018B0000E946D0D58F00E94660D40F029F45F3FC4
:1018C00029F00C945D0D51110C94A80D0C94630D2E
:1018D0000E94850D68F39923B1F3552391F3951B6D
:1018E000550BBB27AA2762177307840738F09F5F41
:1018F0005F4F220F331F441FAA1FA9F335D00E2EAE
:101900003AF0E0E832D091505040E695001CCAF71A
:101910002BD0FE2F29D0660F771F881FBB1F2617DD
:1019200037074807AB07B0E809F0BB0B802DBF01B4
:10193000FF2793585F4F3AF09E3F510578F00C9483
:101940005D0D0C94A80D5F3FE4F3983ED4F38695AB
:1019500077956795B795F7959F5FC9F7880F911DA4
:101960009695879597F90895E1E0660F771F881F90
:10197000BB1F621773078407BA0720F0621B730B43
:10198000840BBA0BEE1F88F7E09508950E94CD0CEA
:101990006894B1110C94A80D08950E948D0D88F0E3
:1019A0009F5798F0B92F9927B751B0F0E1F0660F23
:1019B000771F881F991F1AF0BA95C9F714C0B13064
:1019C00091F00E94A70DB1E008950C94A70D672F28
:1019D000782F8827B85F39F0B93FCCF38695779593
:1019E0006795B395D9F73EF490958095709561957C
:1019F0007F4F8F4F9F4F0895E89409C097FB3EF4A7
:101A000090958095709561957F4F8F4F9F4F99234B
:101A1000A9F0F92F96E9BB279395F69587957795C9
:101A20006795B795F111F8CFFAF4BB0F11F460FF89
:101A30001BC06F5F7F4F8F4F9F4F16C0882311F0E1
:101A400096E911C0772321F09EE8872F762F05C0F5
:101A5000662371F096E8862F70E060E02AF09A9590
:101A6000660F771F881FDAF7880F9695879597F985
:101A70000895990F0008550FAA0BE0E8FEEF16161F
:101A80001706E807F907C0F012161306E407F50772
:101A900098F0621B730B840B950B39F40A2661F0E6
:101AA000232B242B252B21F408950A2609F4A14089
:101AB000A6958FEF811D811D089597F99F6780E896
:101AC00070E060E008959FEF80EC089500240A9490
:101AD0001616170618060906089500240A94121609
:101AE0001306140605060895092E0394000C11F43C
:101AF000882352F0BB0F40F4BF2B11F460FF04C0E9
:101B00006F5F7F4F8F4F9F4F089557FD9058440F41
:101B1000551F59F05F3F71F04795880F97FB991F4C
:101B200061F09F3F79F08795089512161306140609
:101B3000551FF2CF4695F1DF08C016161706180696
:101B4000991FF1CF86957105610508940895E89471
:101B5000BB2766277727CB0197F908950E94390D97
:101B600008F48FEF08950E94C60D0C94740D0E9426
:101B7000660D38F00E946D0D20F0952311F00C9445
:101B80005D0D0C94630D11240C94A80D0E94850D1D
:101B900070F3959FC1F3950F50E0551F629FF001C0
:101BA000729FBB27F00DB11D639FAA27F00DB11DD9
:101BB000AA1F649F6627B00DA11D661F829F222762
:101BC000B00DA11D621F739FB00DA11D621F839FE9
:101BD000A00D611D221F749F3327A00D611D231FBF
:101BE000849F600D211D822F762F6A2F11249F570D
:101BF00050409AF0F1F088234AF0EE0FFF1FBB1F10
:101C0000661F771F881F91505040A9F79E3F5105CE
:101C100080F00C945D0D0C94A80D5F3FE4F3983EAA
:101C2000D4F3869577956795B795F795E7959F5F78
:101C3000C1F7FE2B880F911D9695879597F908950A
:101C40000E94390D880B990B08950F931F93CF9322
:101C5000DF938230910510F482E090E0E09100047F
:101C6000F091010430E020E0B0E0A0E0309799F47A
:101C70002115310509F44AC0281B390B24303105E0
:101C8000D8F58A819B816115710589F1FB019383E8
:101C90008283FE0111C04081518102811381481766
:101CA0005907E0F04817590799F4109761F0129618
:101CB0000C93129713961C933296CF01DF91CF911C
:101CC0001F910F9108950093000410930104F4CF25
:101CD0002115310551F04217530738F0A901DB01F6
:101CE0009A01BD01DF01F801C1CFEF01F9CF909357
:101CF000010480930004CDCFFE01E20FF31F819316
:101D000091932250310939832883D7CF2091FE0344
:101D10003091FF03232B41F4209102013091030104
:101D20003093FF032093FE032091000130910101C5
:101D30002115310541F42DB73EB740910401509172
:101D40000501241B350BE091FE03F091FF03E21720
:101D5000F307A0F42E1B3F0B2817390778F0AC01CE
:101D60004E5F5F4F2417350748F04E0F5F1F5093AB
:101D7000FF034093FE03819391939FCFF0E0E0E057
:101D80009CCFCF93DF930097E9F0FC013297138249
:101D90001282A0910004B0910104ED0130E020E036
:101DA0001097A1F420813181820F931F2091FE03AF
:101DB0003091FF032817390709F061C0F093FF0342
:101DC000E093FE03DF91CF910895EA01CE17DF077C
:101DD000E8F54A815B819E0141155105B1F7E901A2
:101DE000FB83EA8349915991C40FD51FEC17FD0776
:101DF00061F4808191810296840F951FE901998396
:101E00008883828193819B838A83F0E0E0E012964D
:101E10008D919C9113970097B9F52D913C91119755
:101E2000CD010296820F931F2091FE033091FF0394
:101E30002817390739F6309751F51092010410929E
:101E40000004B093FF03A093FE03BCCFD383C283EF
:101E500040815181840F951FC817D90761F44E5FE7
:101E60005F4F88819981480F591F518340838A8130
:101E70009B81938382832115310509F0B0CFF093C4
:101E80000104E09300049ECFFD01DC01C0CF13826A
:081E90001282D7CFF894FFCFB6
:101E9800000002048000000000000C01DF00830441
:101EA800B500D800C500B600000000002E038E0261
:101EB800BB027B03EC02CA02DE02000000006905D7
:101EC8008E028304820400000000860426070D0A9F
:101ED800006E616E00696E66006F7666002D2D2DAE
:101EE8002D2D2D2D2D2D2D2D2D2D2D2D2D2D2D2D1A
:101EF8002D2D2D2D2D2D2D2D2D2D2D2D0042696CA7
:101F0800616E63696120536154202D20477275709A
:101F1800706F20340A00436F6E7472696275746F53
:101F280072733A002D2056696E63656E7A6F205081
:101F3800696F20466C6F72696F002D204672616E62
:101F4800636573636F205374617369002D2053694F
:101F58006D6F6E6120566174696E6E6F002D20443E
:101F6800617669646520546F6E7469002D20476935
:101F78006F76616E6E69205A69746F004C43442015
:101F8800696E697469616C697A6564004275747414
:101F98006F6E20696E697469616C697A6564005353
:101FA80063616C6520696E697469616C697A6564DE
:101FB80000526561643A200020200043616C696228
:101FC800726174696F6E20666163746F723A200083
:101FD8005461726520696E697469616C697A6564B7
:101FE8000052656164696E67733A0057656967688E
:101FF800743A2000206772616D7300206700546195
:0420080072650000FD
:00000001FF
